{
  "contractName": "Calculator",
  "abi": [
    {
      "inputs": [
        {
          "internalType": "int256",
          "name": "a",
          "type": "int256"
        },
        {
          "internalType": "int256",
          "name": "b",
          "type": "int256"
        }
      ],
      "name": "add",
      "outputs": [
        {
          "internalType": "int256",
          "name": "",
          "type": "int256"
        }
      ],
      "stateMutability": "nonpayable",
      "type": "function"
    },
    {
      "inputs": [
        {
          "internalType": "int256",
          "name": "a",
          "type": "int256"
        },
        {
          "internalType": "int256",
          "name": "b",
          "type": "int256"
        }
      ],
      "name": "sub",
      "outputs": [
        {
          "internalType": "int256",
          "name": "",
          "type": "int256"
        }
      ],
      "stateMutability": "nonpayable",
      "type": "function"
    },
    {
      "inputs": [
        {
          "internalType": "int256",
          "name": "a",
          "type": "int256"
        },
        {
          "internalType": "int256",
          "name": "b",
          "type": "int256"
        }
      ],
      "name": "mul",
      "outputs": [
        {
          "internalType": "int256",
          "name": "",
          "type": "int256"
        }
      ],
      "stateMutability": "nonpayable",
      "type": "function"
    },
    {
      "inputs": [
        {
          "internalType": "int256",
          "name": "a",
          "type": "int256"
        },
        {
          "internalType": "int256",
          "name": "b",
          "type": "int256"
        }
      ],
      "name": "div",
      "outputs": [
        {
          "internalType": "int256",
          "name": "",
          "type": "int256"
        }
      ],
      "stateMutability": "nonpayable",
      "type": "function"
    },
    {
      "inputs": [],
      "name": "getResult",
      "outputs": [
        {
          "internalType": "int256",
          "name": "",
          "type": "int256"
        }
      ],
      "stateMutability": "view",
      "type": "function",
      "constant": true
    }
  ],
  "bytecode": "0x608060405234801561001057600080fd5b5061064c806100206000396000f3fe608060405234801561001057600080fd5b50600436106100575760003560e01c8063435091381461005c578063a5f3c23b1461008c578063adefc37b146100bc578063bbe93d91146100ec578063de2927891461011c575b600080fd5b61007660048036038101906100719190610217565b61013a565b60405161008391906102a2565b60405180910390f35b6100a660048036038101906100a19190610217565b61019c565b6040516100b391906102a2565b60405180910390f35b6100d660048036038101906100d19190610217565b6101bb565b6040516100e391906102a2565b60405180910390f35b61010660048036038101906101019190610217565b6101da565b60405161011391906102a2565b60405180910390f35b6101246101f9565b60405161013191906102a2565b60405180910390f35b60008082141561017f576040517f08c379a0000000000000000000000000000000000000000000000000000000008152600401610176906102bd565b60405180910390fd5b818361018b9190610382565b600081905550600054905092915050565b600081836101aa91906102ee565b600081905550600054905092915050565b600081836101c99190610503565b600081905550600054905092915050565b600081836101e891906103ec565b600081905550600054905092915050565b60008054905090565b600081359050610211816105ff565b92915050565b6000806040838503121561022a57600080fd5b600061023885828601610202565b925050602061024985828601610202565b9150509250929050565b61025c81610597565b82525050565b600061026f601f836102dd565b91507f4469766973696f6e206279207a65726f206973206e6f7420616c6c6f776564006000830152602082019050919050565b60006020820190506102b76000830184610253565b92915050565b600060208201905081810360008301526102d681610262565b9050919050565b600082825260208201905092915050565b60006102f982610597565b915061030483610597565b9250817f7fffffffffffffffffffffffffffffffffffffffffffffffffffffffffffffff0383136000831215161561033f5761033e6105a1565b5b817f8000000000000000000000000000000000000000000000000000000000000000038312600083121615610377576103766105a1565b5b828201905092915050565b600061038d82610597565b915061039883610597565b9250826103a8576103a76105d0565b5b600160000383147f8000000000000000000000000000000000000000000000000000000000000000831416156103e1576103e06105a1565b5b828205905092915050565b60006103f782610597565b915061040283610597565b9250827f7fffffffffffffffffffffffffffffffffffffffffffffffffffffffffffffff0482116000841360008413161615610441576104406105a1565b5b817f8000000000000000000000000000000000000000000000000000000000000000058312600084126000841316161561047e5761047d6105a1565b5b827f800000000000000000000000000000000000000000000000000000000000000005821260008413600084121616156104bb576104ba6105a1565b5b827f7fffffffffffffffffffffffffffffffffffffffffffffffffffffffffffffff05821260008412600084121616156104f8576104f76105a1565b5b828202905092915050565b600061050e82610597565b915061051983610597565b9250827f800000000000000000000000000000000000000000000000000000000000000001821260008412151615610554576105536105a1565b5b827f7fffffffffffffffffffffffffffffffffffffffffffffffffffffffffffffff01821360008412161561058c5761058b6105a1565b5b828203905092915050565b6000819050919050565b7f4e487b7100000000000000000000000000000000000000000000000000000000600052601160045260246000fd5b7f4e487b7100000000000000000000000000000000000000000000000000000000600052601260045260246000fd5b61060881610597565b811461061357600080fd5b5056fea2646970667358221220e24572b7066d54f57109a14ef2218f33176636c634c6aa22b142d48273d93b6b64736f6c63430008000033",
  "immutableReferences": {},
  "source": "// SPDX-License-Identifier: SEE LICENSE IN LICENSE\r\npragma solidity ^0.8.0;\r\n\r\ncontract Calculator{\r\n    int private result;\r\n\r\n    function add(int a,int b) public returns(int){\r\n        result = a + b;\r\n        return result;\r\n    }\r\n\r\n    function sub(int a,int b) public returns(int){\r\n        result = a - b;\r\n        return result;\r\n    }\r\n    function mul(int a,int b) public returns(int){\r\n        result = a * b;\r\n        return result;\r\n    }\r\n    function div(int a,int b) public returns(int){\r\n        require(b != 0, \"Division by zero is not allowed\");\r\n        result = a / b;\r\n        return result;\r\n    }\r\n\r\n    function getResult() public view returns(int){\r\n        return result;\r\n    }\r\n\r\n}",
  "sourcePath": "C:\\Users\\user\\Downloads\\codes\\projects\\web3\\dappCalc\\contracts\\Calculator.sol",
  "compiler": {
    "name": "solc",
    "version": "0.8.0+commit.c7dfd78e.Emscripten.clang"
  },
  "schemaVersion": "3.4.16",
  "updatedAt": "2025-05-12T17:54:12.034Z",
  "networkType": "ethereum",
  "devdoc": {
    "kind": "dev",
    "methods": {},
    "version": 1
  },
  "userdoc": {
    "kind": "user",
    "methods": {},
    "version": 1
  }
}